S02B00006175746F6D617469635F736D6172745F6361725F626172726965725F70726F6A6563742E737265637B
S11300000C942A000C9447000C9447000C9447006D
S11300100C9447000C9447000C9447000C94470040
S11300200C9447000C9447000C9447000C94470030
S11300300C9447000C9447000C9447000C94470020
S11300400C9447000C9447000C9447000C94470010
S11300500C94470011241FBECFE5D8E0DEBFCDBF0E
S113006010E0A0E6B0E0E4EEF9E002C005900D92E5
S1130070A236B107D9F710E0A2E6B0E001C01D92A4
S1130080AE36B107E1F70E9449000C94F0040C94D9
S1130090000084E465E041E00E940A0184E467E032
S11300A041E00E940A010E943E04C0E2D1EC0F2EFE
S11300B0F1E8BF2EF02D0F2EF0E8CF2EF4E8DF2E5E
S11300C0FEE1EF2EF0E0FF2EF02D1FBCC8BF84E44C
S11300D067E041E00E949B0180E18A95F1F700C04E
S11300E084E467E040E00E949B01DEBD08B605FEA3
S11300F0FDCF86B597B590936D0080936C00C8BF13
S1130100BEBC08B605FEFDCF66B577B57093670033
S113011060936600C8BF1DBC1CBC1EBC80916C00F3
S113012090916D00681B790B70936B0060936A006B
S113013080E090E028E237E840E050E00E94AF041D
S1130140A70196010E94CE0489019A0110936900C7
S113015000936800959AA6E7B1E01197F1F700C003
S1130160000095980531110548F00E9472048091B1
S113017068009091690085319105B8F70E94860462
S1130180959A89EF90E00197F1F700C000009598E7
S11301908FE996E8A1E081509040A040E1F700C0CB
S11301A0000060916A0070916B0080E090E028E2AA
S11301B037E840E050E00E94AF04A70196010E9496
S11301C0CE0489019A011093650000936400959A06
S11301D0A3EFB1E01197F1F700C0000095988FE903
S11301E096E8A1E081509040A040E1F700C00000F3
S11301F010936300009362000E947C048FED98E2E8
S1130200A1E081509040A040E1F700C000000E94AE
S113021086045BCF843409F454C0853448F48234B2
S113022099F1833408F06AC0813409F083C00FC0A7
S1130230823651F1833620F4813609F07BC007C041
S1130240833609F45BC0843609F074C03AC0413087
S113025069F42AB381E090E0AC0102C0440F551F59
S11302606A95E2F7BA01622B6ABB08952AB381E06A
S113027090E0AC0102C0440F551F6A95E2F7BA0141
S1130280609562236ABB0895413069F427B381E025
S113029090E0AC0102C0440F551F6A95E2F7BA0121
S11302A0622B67BB089527B381E090E0AC0102C0E4
S11302B0440F551F6A95E2F7BA016095622367BB44
S11302C00895413069F421B381E090E0AC0102C0AB
S11302D0440F551F6A95E2F7BA01622B61BB08957A
S11302E021B381E090E0AC0102C0440F551F6A9530
S11302F0E2F7BA016095622361BB0895413069F465
S113030024B381E090E0AC0102C0440F551F6A950C
S1130310E2F7BA01622B64BB089524B381E090E054
S1130320AC0102C0440F551F6A95E2F7BA0160950B
S1130330622364BB0895843409F454C0853448F4BA
S1130340823499F1833408F06AC0813409F083C09F
S11303500FC0823651F1833620F4813609F07BC018
S113036007C0833609F45BC0843609F074C03AC010
S1130370413069F42BB381E090E0AC0102C0440F3A
S1130380551F6A95E2F7BA01622B6BBB08952BB334
S113039081E090E0AC0102C0440F551F6A95E2F77A
S11303A0BA01609562236BBB0895413069F428B3A8
S11303B081E090E0AC0102C0440F551F6A95E2F75A
S11303C0BA01622B68BB089528B381E090E0AC01C8
S11303D002C0440F551F6A95E2F7BA016095622383
S11303E068BB0895413069F422B381E090E0AC0128
S11303F002C0440F551F6A95E2F7BA01622B62BB33
S1130400089522B381E090E0AC0102C0440F551F6F
S11304106A95E2F7BA016095622362BB08954130A0
S113042069F425B381E090E0AC0102C0440F551F8C
S11304306A95E2F7BA01622B65BB089525B381E0A2
S113044090E0AC0102C0440F551F6A95E2F7BA016F
S11304506095622365BB0895843481F1853440F44A
S11304608234F9F08334B8F5813409F040C00CC00B
S11304708236B9F0833618F48136C9F505C083365F
S113048051F18436A1F51AC02BB381E090E0AC01A0
S113049002C0440F551F6A95E2F7BA0162276BBB8D
S11304A0089528B381E090E0AC0102C0440F551FC9
S11304B06A95E2F7BA01622768BB089522B381E026
S11304C090E0AC0102C0440F551F6A95E2F7BA01EF
S11304D0622762BB089525B381E090E0AC0102C0BD
S11304E0440F551F6A95E2F7BA01622765BB089568
S11304F0843409F451C0853440F4823439F18334AE
S1130500C0F5813409F05AC00EC08236F9F0833642
S113051020F4813609F052C006C0833651F1843686
S113052009F04CC039C029B381E090E0062E02C026
S1130530880F991F0A94E2F730E08223932302C0C4
S1130540969587956A95E2F7982F38C026B381E08F
S113055090E0062E02C0880F991F0A94E2F730E05B
S11305608223932302C0969587956A95E2F7982F84
S113057025C023B381E090E0062E02C0880F991FA6
S11305800A94E2F730E08223932302C0969587957C
S11305906A95E2F7982F12C020B381E090E0062E0E
S11305A002C0880F991F0A94E2F730E08223932354
S11305B002C0969587956A95E2F7982F892F08953A
S11305C08434C9F0853438F4823499F08334A8F43F
S11305D08134A1F40CC0823661F0833618F481367C
S11305E069F405C0833649F0843641F404C06ABB1B
S11305F0089567BB089561BB089564BB089584346E
S1130600C9F0853438F4823499F08334A8F4813401
S1130610A1F40CC0823661F0833618F4813669F493
S113062005C0833649F0843641F404C06BBB089599
S113063068BB089562BB089565BB08958434D1F006
S1130640853438F4823499F08334B8F48134B9F4BD
S11306500CC0823661F0833618F4813681F405C00B
S1130660833659F0843659F405C099B308C086B36B
S113067088BB05C080B382BB02C083B385BB892F0E
S113068008958434E9F0853438F48234A9F083344D
S1130690D8F48134E1F40CC0823671F0833618F456
S11306A08136A9F405C0833679F0843681F408C014
S11306B08BB380958BBB089588B3809588BB0895D0
S11306C082B3809582BB089585B3809585BB0895D8
S11306D0823451F1833420F4813409F07BC007C0A3
S11306E0833409F43EC0843409F074C057C04130E7
S11306F069F42BB381E090E0AC0102C0440F551FB4
S11307006A95E2F7BA01622B6BBB08952BB381E0C3
S113071090E0AC0102C0440F551F6A95E2F7BA019C
S1130720609562236BBB0895413069F428B381E07E
S113073090E0AC0102C0440F551F6A95E2F7BA017C
S1130740622B68BB089528B381E090E0AC0102C03D
S1130750440F551F6A95E2F7BA016095622368BB9E
S11307600895413069F425B381E090E0AC0102C002
S1130770440F551F6A95E2F7BA01622B65BB0895D1
S113078025B381E090E0AC0102C0440F551F6A9587
S1130790E2F7BA016095622365BB0895413069F4BC
S11307A022B381E090E0AC0102C0440F551F6A956A
S11307B0E2F7BA01622B62BB089522B381E090E0B4
S11307C0AC0102C0440F551F6A95E2F7BA01609567
S11307D0622362BB08956F70823489F0833418F405
S11307E0813409F505C0833489F08434E1F415C0FB
S11307F08BB3807F8BBB8BB3682B6BBB089588B3A3
S1130800807F88BB88B3682B68BB089585B3807FDD
S113081085BB85B3682B65BB089582B3807F82BB9B
S113082082B3682B62BB08956295607F823489F03D
S1130830833418F4813409F505C0833489F0843491
S1130840E1F415C08BB38F708BBB8BB3682B6BBB80
S1130850089588B38F7088BB88B3682B68BB0895EC
S113086085B38F7085BB85B3682B65BB089582B350
S11308708F7082BB82B3682B62BB08958FEF87BBF6
S11308808ABBDA9ADB9AC29AC39A089582E460E03A
S113089041E00E949B0182E465E041E00E949B01EB
S11308A0089582E461E041E00E949B0182E464E0F7
S11308B041E00E949B01089581E460E041E00E94D0
S11308C09B0181E465E041E00E949B01089581E47D
S11308D061E041E00E949B0181E464E041E00E9408
S11308E09B0108950E9446040E945C0408950E949E
S11308F051040E94670408950E9446040E946704FC
S113090008950E9451040E945C04089581E460E00B
S113091040E00E949B0181E465E040E00E949B016D
S113092082E460E040E00E949B0182E465E040E0F4
S11309300E949B0181E461E040E00E949B0181E40C
S113094064E040E00E949B0182E461E040E00E9498
S11309509B0182E464E040E00E949B010895629F51
S1130960D001739FF001829FE00DF11D649FE00DA3
S1130970F11D929FF00D839FF00D749FF00D659F04
S1130980F00D9927729FB00DE11DF91F639FB00D03
S1130990E11DF91FBD01CF0111240895A1E21A2E12
S11309A0AA1BBB1BFD010DC0AA1FBB1FEE1FFF1F0F
S11309B0A217B307E407F50720F0A21BB30BE40B5F
S11309C0F50B661F771F881F991F1A9469F76095A6
S11309D07095809590959B01AC01BD01CF01089560
S10709E0F894FFCFB5
S10509E45000BD
S9030000FC
